{
  "_format": "hh-sol-artifact-1",
  "contractName": "ShadedApesNFT",
  "sourceName": "contracts/ShadedApesNFT.sol",
  "abi": [
    {
      "inputs": [
        {
          "internalType": "string",
          "name": "contractName",
          "type": "string"
        },
        {
          "internalType": "string",
          "name": "contractSymbol",
          "type": "string"
        },
        {
          "internalType": "address",
          "name": "_vault",
          "type": "address"
        },
        {
          "internalType": "address",
          "name": "_signer",
          "type": "address"
        },
        {
          "internalType": "string",
          "name": "__baseTokenURI",
          "type": "string"
        },
        {
          "internalType": "string",
          "name": "_hiddenMetadataUri",
          "type": "string"
        },
        {
          "internalType": "address[]",
          "name": "_payees",
          "type": "address[]"
        },
        {
          "internalType": "uint256[]",
          "name": "_shares",
          "type": "uint256[]"
        }
      ],
      "stateMutability": "payable",
      "type": "constructor"
    },
    {
      "inputs": [
        {
          "internalType": "address",
          "name": "operator",
          "type": "address"
        }
      ],
      "name": "OperatorNotAllowed",
      "type": "error"
    },
    {
      "anonymous": false,
      "inputs": [
        {
          "indexed": true,
          "internalType": "address",
          "name": "owner",
          "type": "address"
        },
        {
          "indexed": true,
          "internalType": "address",
          "name": "approved",
          "type": "address"
        },
        {
          "indexed": true,
          "internalType": "uint256",
          "name": "tokenId",
          "type": "uint256"
        }
      ],
      "name": "Approval",
      "type": "event"
    },
    {
      "anonymous": false,
      "inputs": [
        {
          "indexed": true,
          "internalType": "address",
          "name": "owner",
          "type": "address"
        },
        {
          "indexed": true,
          "internalType": "address",
          "name": "operator",
          "type": "address"
        },
        {
          "indexed": false,
          "internalType": "bool",
          "name": "approved",
          "type": "bool"
        }
      ],
      "name": "ApprovalForAll",
      "type": "event"
    },
    {
      "anonymous": false,
      "inputs": [
        {
          "indexed": true,
          "internalType": "contract IERC20",
          "name": "token",
          "type": "address"
        },
        {
          "indexed": false,
          "internalType": "address",
          "name": "to",
          "type": "address"
        },
        {
          "indexed": false,
          "internalType": "uint256",
          "name": "amount",
          "type": "uint256"
        }
      ],
      "name": "ERC20PaymentReleased",
      "type": "event"
    },
    {
      "anonymous": false,
      "inputs": [
        {
          "indexed": true,
          "internalType": "address",
          "name": "previousOwner",
          "type": "address"
        },
        {
          "indexed": true,
          "internalType": "address",
          "name": "newOwner",
          "type": "address"
        }
      ],
      "name": "OwnershipTransferred",
      "type": "event"
    },
    {
      "anonymous": false,
      "inputs": [
        {
          "indexed": false,
          "internalType": "address",
          "name": "account",
          "type": "address"
        },
        {
          "indexed": false,
          "internalType": "uint256",
          "name": "shares",
          "type": "uint256"
        }
      ],
      "name": "PayeeAdded",
      "type": "event"
    },
    {
      "anonymous": false,
      "inputs": [
        {
          "indexed": false,
          "internalType": "address",
          "name": "from",
          "type": "address"
        },
        {
          "indexed": false,
          "internalType": "uint256",
          "name": "amount",
          "type": "uint256"
        }
      ],
      "name": "PaymentReceived",
      "type": "event"
    },
    {
      "anonymous": false,
      "inputs": [
        {
          "indexed": false,
          "internalType": "address",
          "name": "to",
          "type": "address"
        },
        {
          "indexed": false,
          "internalType": "uint256",
          "name": "amount",
          "type": "uint256"
        }
      ],
      "name": "PaymentReleased",
      "type": "event"
    },
    {
      "anonymous": false,
      "inputs": [
        {
          "indexed": true,
          "internalType": "address",
          "name": "from",
          "type": "address"
        },
        {
          "indexed": true,
          "internalType": "address",
          "name": "to",
          "type": "address"
        },
        {
          "indexed": true,
          "internalType": "uint256",
          "name": "tokenId",
          "type": "uint256"
        }
      ],
      "name": "Transfer",
      "type": "event"
    },
    {
      "inputs": [],
      "name": "Author",
      "outputs": [
        {
          "internalType": "string",
          "name": "",
          "type": "string"
        }
      ],
      "stateMutability": "view",
      "type": "function"
    },
    {
      "inputs": [],
      "name": "MAX_TOKENS",
      "outputs": [
        {
          "internalType": "uint256",
          "name": "",
          "type": "uint256"
        }
      ],
      "stateMutability": "view",
      "type": "function"
    },
    {
      "inputs": [],
      "name": "OPERATOR_FILTER_REGISTRY",
      "outputs": [
        {
          "internalType": "contract IOperatorFilterRegistry",
          "name": "",
          "type": "address"
        }
      ],
      "stateMutability": "view",
      "type": "function"
    },
    {
      "inputs": [],
      "name": "ProjectTeam",
      "outputs": [
        {
          "internalType": "string",
          "name": "",
          "type": "string"
        }
      ],
      "stateMutability": "view",
      "type": "function"
    },
    {
      "inputs": [
        {
          "internalType": "address",
          "name": "operator",
          "type": "address"
        },
        {
          "internalType": "uint256",
          "name": "tokenId",
          "type": "uint256"
        }
      ],
      "name": "approve",
      "outputs": [],
      "stateMutability": "nonpayable",
      "type": "function"
    },
    {
      "inputs": [
        {
          "internalType": "address",
          "name": "owner",
          "type": "address"
        }
      ],
      "name": "balanceOf",
      "outputs": [
        {
          "internalType": "uint256",
          "name": "",
          "type": "uint256"
        }
      ],
      "stateMutability": "view",
      "type": "function"
    },
    {
      "inputs": [],
      "name": "baseExtension",
      "outputs": [
        {
          "internalType": "string",
          "name": "",
          "type": "string"
        }
      ],
      "stateMutability": "view",
      "type": "function"
    },
    {
      "inputs": [
        {
          "internalType": "uint256",
          "name": "tokenId",
          "type": "uint256"
        }
      ],
      "name": "burn",
      "outputs": [],
      "stateMutability": "nonpayable",
      "type": "function"
    },
    {
      "inputs": [],
      "name": "buyBonusMultiplier",
      "outputs": [
        {
          "internalType": "uint256",
          "name": "",
          "type": "uint256"
        }
      ],
      "stateMutability": "view",
      "type": "function"
    },
    {
      "inputs": [],
      "name": "crossMintAddress",
      "outputs": [
        {
          "internalType": "address",
          "name": "",
          "type": "address"
        }
      ],
      "stateMutability": "view",
      "type": "function"
    },
    {
      "inputs": [
        {
          "internalType": "address",
          "name": "_to",
          "type": "address"
        },
        {
          "internalType": "uint256",
          "name": "quantity",
          "type": "uint256"
        }
      ],
      "name": "crossmint",
      "outputs": [],
      "stateMutability": "payable",
      "type": "function"
    },
    {
      "inputs": [
        {
          "internalType": "uint256",
          "name": "tokenId",
          "type": "uint256"
        }
      ],
      "name": "getApproved",
      "outputs": [
        {
          "internalType": "address",
          "name": "",
          "type": "address"
        }
      ],
      "stateMutability": "view",
      "type": "function"
    },
    {
      "inputs": [],
      "name": "hiddenMetadataUri",
      "outputs": [
        {
          "internalType": "string",
          "name": "",
          "type": "string"
        }
      ],
      "stateMutability": "view",
      "type": "function"
    },
    {
      "inputs": [
        {
          "internalType": "address",
          "name": "owner",
          "type": "address"
        },
        {
          "internalType": "address",
          "name": "operator",
          "type": "address"
        }
      ],
      "name": "isApprovedForAll",
      "outputs": [
        {
          "internalType": "bool",
          "name": "",
          "type": "bool"
        }
      ],
      "stateMutability": "view",
      "type": "function"
    },
    {
      "inputs": [],
      "name": "maxWhitelistPassMints",
      "outputs": [
        {
          "internalType": "uint256",
          "name": "",
          "type": "uint256"
        }
      ],
      "stateMutability": "view",
      "type": "function"
    },
    {
      "inputs": [],
      "name": "name",
      "outputs": [
        {
          "internalType": "string",
          "name": "",
          "type": "string"
        }
      ],
      "stateMutability": "view",
      "type": "function"
    },
    {
      "inputs": [
        {
          "internalType": "uint256",
          "name": "quantity",
          "type": "uint256"
        }
      ],
      "name": "openMint",
      "outputs": [],
      "stateMutability": "payable",
      "type": "function"
    },
    {
      "inputs": [],
      "name": "owner",
      "outputs": [
        {
          "internalType": "address",
          "name": "",
          "type": "address"
        }
      ],
      "stateMutability": "view",
      "type": "function"
    },
    {
      "inputs": [
        {
          "internalType": "uint256",
          "name": "tokenId",
          "type": "uint256"
        }
      ],
      "name": "ownerOf",
      "outputs": [
        {
          "internalType": "address",
          "name": "",
          "type": "address"
        }
      ],
      "stateMutability": "view",
      "type": "function"
    },
    {
      "inputs": [
        {
          "internalType": "uint256",
          "name": "index",
          "type": "uint256"
        }
      ],
      "name": "payee",
      "outputs": [
        {
          "internalType": "address",
          "name": "",
          "type": "address"
        }
      ],
      "stateMutability": "view",
      "type": "function"
    },
    {
      "inputs": [],
      "name": "privateMintIsOpen",
      "outputs": [
        {
          "internalType": "bool",
          "name": "",
          "type": "bool"
        }
      ],
      "stateMutability": "view",
      "type": "function"
    },
    {
      "inputs": [],
      "name": "publicCrossMintIsOpen",
      "outputs": [
        {
          "internalType": "bool",
          "name": "",
          "type": "bool"
        }
      ],
      "stateMutability": "view",
      "type": "function"
    },
    {
      "inputs": [],
      "name": "publicMintIsOpen",
      "outputs": [
        {
          "internalType": "bool",
          "name": "",
          "type": "bool"
        }
      ],
      "stateMutability": "view",
      "type": "function"
    },
    {
      "inputs": [],
      "name": "publicMintMaxLimit",
      "outputs": [
        {
          "internalType": "uint256",
          "name": "",
          "type": "uint256"
        }
      ],
      "stateMutability": "view",
      "type": "function"
    },
    {
      "inputs": [
        {
          "internalType": "address",
          "name": "account",
          "type": "address"
        }
      ],
      "name": "releasable",
      "outputs": [
        {
          "internalType": "uint256",
          "name": "",
          "type": "uint256"
        }
      ],
      "stateMutability": "view",
      "type": "function"
    },
    {
      "inputs": [
        {
          "internalType": "contract IERC20",
          "name": "token",
          "type": "address"
        },
        {
          "internalType": "address",
          "name": "account",
          "type": "address"
        }
      ],
      "name": "releasable",
      "outputs": [
        {
          "internalType": "uint256",
          "name": "",
          "type": "uint256"
        }
      ],
      "stateMutability": "view",
      "type": "function"
    },
    {
      "inputs": [
        {
          "internalType": "address payable",
          "name": "account",
          "type": "address"
        }
      ],
      "name": "release",
      "outputs": [],
      "stateMutability": "nonpayable",
      "type": "function"
    },
    {
      "inputs": [
        {
          "internalType": "contract IERC20",
          "name": "token",
          "type": "address"
        },
        {
          "internalType": "address",
          "name": "account",
          "type": "address"
        }
      ],
      "name": "release",
      "outputs": [],
      "stateMutability": "nonpayable",
      "type": "function"
    },
    {
      "inputs": [
        {
          "internalType": "contract IERC20",
          "name": "token",
          "type": "address"
        },
        {
          "internalType": "address",
          "name": "account",
          "type": "address"
        }
      ],
      "name": "released",
      "outputs": [
        {
          "internalType": "uint256",
          "name": "",
          "type": "uint256"
        }
      ],
      "stateMutability": "view",
      "type": "function"
    },
    {
      "inputs": [
        {
          "internalType": "address",
          "name": "account",
          "type": "address"
        }
      ],
      "name": "released",
      "outputs": [
        {
          "internalType": "uint256",
          "name": "",
          "type": "uint256"
        }
      ],
      "stateMutability": "view",
      "type": "function"
    },
    {
      "inputs": [],
      "name": "renounceOwnership",
      "outputs": [],
      "stateMutability": "nonpayable",
      "type": "function"
    },
    {
      "inputs": [],
      "name": "revealed",
      "outputs": [
        {
          "internalType": "bool",
          "name": "",
          "type": "bool"
        }
      ],
      "stateMutability": "view",
      "type": "function"
    },
    {
      "inputs": [
        {
          "internalType": "address",
          "name": "from",
          "type": "address"
        },
        {
          "internalType": "address",
          "name": "to",
          "type": "address"
        },
        {
          "internalType": "uint256",
          "name": "tokenId",
          "type": "uint256"
        }
      ],
      "name": "safeTransferFrom",
      "outputs": [],
      "stateMutability": "nonpayable",
      "type": "function"
    },
    {
      "inputs": [
        {
          "internalType": "address",
          "name": "from",
          "type": "address"
        },
        {
          "internalType": "address",
          "name": "to",
          "type": "address"
        },
        {
          "internalType": "uint256",
          "name": "tokenId",
          "type": "uint256"
        },
        {
          "internalType": "bytes",
          "name": "data",
          "type": "bytes"
        }
      ],
      "name": "safeTransferFrom",
      "outputs": [],
      "stateMutability": "nonpayable",
      "type": "function"
    },
    {
      "inputs": [
        {
          "internalType": "address",
          "name": "operator",
          "type": "address"
        },
        {
          "internalType": "bool",
          "name": "approved",
          "type": "bool"
        }
      ],
      "name": "setApprovalForAll",
      "outputs": [],
      "stateMutability": "nonpayable",
      "type": "function"
    },
    {
      "inputs": [
        {
          "internalType": "string",
          "name": "_baseExtension",
          "type": "string"
        }
      ],
      "name": "setBaseExtension",
      "outputs": [],
      "stateMutability": "nonpayable",
      "type": "function"
    },
    {
      "inputs": [
        {
          "internalType": "string",
          "name": "newBaseURI",
          "type": "string"
        }
      ],
      "name": "setBaseURI",
      "outputs": [],
      "stateMutability": "nonpayable",
      "type": "function"
    },
    {
      "inputs": [
        {
          "internalType": "uint256",
          "name": "amount",
          "type": "uint256"
        }
      ],
      "name": "setFreeMints",
      "outputs": [],
      "stateMutability": "nonpayable",
      "type": "function"
    },
    {
      "inputs": [
        {
          "internalType": "string",
          "name": "_hiddenMetadataUri",
          "type": "string"
        }
      ],
      "name": "setHiddenMetadataUri",
      "outputs": [],
      "stateMutability": "nonpayable",
      "type": "function"
    },
    {
      "inputs": [
        {
          "internalType": "uint256",
          "name": "newPrice",
          "type": "uint256"
        },
        {
          "internalType": "uint256",
          "name": "newWhitelistTokenPrice",
          "type": "uint256"
        },
        {
          "internalType": "uint256",
          "name": "setOpenMintLimit",
          "type": "uint256"
        },
        {
          "internalType": "uint256",
          "name": "setWhistlistPassMintLimit",
          "type": "uint256"
        },
        {
          "internalType": "uint256",
          "name": "_mintMultiplier",
          "type": "uint256"
        },
        {
          "internalType": "address",
          "name": "setCrossMintAddress",
          "type": "address"
        },
        {
          "internalType": "bool",
          "name": "setPublicMintState",
          "type": "bool"
        },
        {
          "internalType": "bool",
          "name": "setPublicCrossMintIsOpen",
          "type": "bool"
        },
        {
          "internalType": "bool",
          "name": "setPrivateMintState",
          "type": "bool"
        }
      ],
      "name": "setParams",
      "outputs": [],
      "stateMutability": "nonpayable",
      "type": "function"
    },
    {
      "inputs": [
        {
          "internalType": "bool",
          "name": "_state",
          "type": "bool"
        }
      ],
      "name": "setRevealed",
      "outputs": [],
      "stateMutability": "nonpayable",
      "type": "function"
    },
    {
      "inputs": [
        {
          "internalType": "address",
          "name": "newSigner",
          "type": "address"
        }
      ],
      "name": "setSignerAddress",
      "outputs": [],
      "stateMutability": "nonpayable",
      "type": "function"
    },
    {
      "inputs": [
        {
          "internalType": "uint256",
          "name": "newPrice",
          "type": "uint256"
        }
      ],
      "name": "setTokenPrice",
      "outputs": [],
      "stateMutability": "nonpayable",
      "type": "function"
    },
    {
      "inputs": [
        {
          "internalType": "uint256",
          "name": "newMintLimit",
          "type": "uint256"
        }
      ],
      "name": "setTransactionMintLimit",
      "outputs": [],
      "stateMutability": "nonpayable",
      "type": "function"
    },
    {
      "inputs": [
        {
          "internalType": "address",
          "name": "newVault",
          "type": "address"
        }
      ],
      "name": "setVaultAddress",
      "outputs": [],
      "stateMutability": "nonpayable",
      "type": "function"
    },
    {
      "inputs": [
        {
          "internalType": "uint256",
          "name": "newprivateMintLimit",
          "type": "uint256"
        }
      ],
      "name": "setWhitelistTransactionMintLimit",
      "outputs": [],
      "stateMutability": "nonpayable",
      "type": "function"
    },
    {
      "inputs": [
        {
          "internalType": "address",
          "name": "account",
          "type": "address"
        }
      ],
      "name": "shares",
      "outputs": [
        {
          "internalType": "uint256",
          "name": "",
          "type": "uint256"
        }
      ],
      "stateMutability": "view",
      "type": "function"
    },
    {
      "inputs": [
        {
          "internalType": "bytes4",
          "name": "interfaceId",
          "type": "bytes4"
        }
      ],
      "name": "supportsInterface",
      "outputs": [
        {
          "internalType": "bool",
          "name": "",
          "type": "bool"
        }
      ],
      "stateMutability": "view",
      "type": "function"
    },
    {
      "inputs": [],
      "name": "symbol",
      "outputs": [
        {
          "internalType": "string",
          "name": "",
          "type": "string"
        }
      ],
      "stateMutability": "view",
      "type": "function"
    },
    {
      "inputs": [
        {
          "internalType": "address",
          "name": "to",
          "type": "address"
        },
        {
          "internalType": "uint256",
          "name": "amount",
          "type": "uint256"
        }
      ],
      "name": "teamMint",
      "outputs": [],
      "stateMutability": "nonpayable",
      "type": "function"
    },
    {
      "inputs": [],
      "name": "togglePresaleMint",
      "outputs": [],
      "stateMutability": "nonpayable",
      "type": "function"
    },
    {
      "inputs": [],
      "name": "togglePublicMint",
      "outputs": [],
      "stateMutability": "nonpayable",
      "type": "function"
    },
    {
      "inputs": [],
      "name": "tokenPrice",
      "outputs": [
        {
          "internalType": "uint256",
          "name": "",
          "type": "uint256"
        }
      ],
      "stateMutability": "view",
      "type": "function"
    },
    {
      "inputs": [
        {
          "internalType": "uint256",
          "name": "_tokenId",
          "type": "uint256"
        }
      ],
      "name": "tokenURI",
      "outputs": [
        {
          "internalType": "string",
          "name": "",
          "type": "string"
        }
      ],
      "stateMutability": "view",
      "type": "function"
    },
    {
      "inputs": [
        {
          "internalType": "contract IERC20",
          "name": "token",
          "type": "address"
        }
      ],
      "name": "totalReleased",
      "outputs": [
        {
          "internalType": "uint256",
          "name": "",
          "type": "uint256"
        }
      ],
      "stateMutability": "view",
      "type": "function"
    },
    {
      "inputs": [],
      "name": "totalReleased",
      "outputs": [
        {
          "internalType": "uint256",
          "name": "",
          "type": "uint256"
        }
      ],
      "stateMutability": "view",
      "type": "function"
    },
    {
      "inputs": [],
      "name": "totalShares",
      "outputs": [
        {
          "internalType": "uint256",
          "name": "",
          "type": "uint256"
        }
      ],
      "stateMutability": "view",
      "type": "function"
    },
    {
      "inputs": [],
      "name": "totalSupply",
      "outputs": [
        {
          "internalType": "uint256",
          "name": "",
          "type": "uint256"
        }
      ],
      "stateMutability": "view",
      "type": "function"
    },
    {
      "inputs": [
        {
          "internalType": "address",
          "name": "from",
          "type": "address"
        },
        {
          "internalType": "address",
          "name": "to",
          "type": "address"
        },
        {
          "internalType": "uint256",
          "name": "tokenId",
          "type": "uint256"
        }
      ],
      "name": "transferFrom",
      "outputs": [],
      "stateMutability": "nonpayable",
      "type": "function"
    },
    {
      "inputs": [
        {
          "internalType": "address",
          "name": "newOwner",
          "type": "address"
        }
      ],
      "name": "transferOwnership",
      "outputs": [],
      "stateMutability": "nonpayable",
      "type": "function"
    },
    {
      "inputs": [
        {
          "internalType": "uint256",
          "name": "_multiplier",
          "type": "uint256"
        }
      ],
      "name": "updateMultiplier",
      "outputs": [],
      "stateMutability": "nonpayable",
      "type": "function"
    },
    {
      "inputs": [
        {
          "internalType": "uint8",
          "name": "quantity",
          "type": "uint8"
        },
        {
          "internalType": "uint8",
          "name": "claimable",
          "type": "uint8"
        },
        {
          "components": [
            {
              "internalType": "bytes32",
              "name": "r",
              "type": "bytes32"
            },
            {
              "internalType": "bytes32",
              "name": "s",
              "type": "bytes32"
            },
            {
              "internalType": "uint8",
              "name": "v",
              "type": "uint8"
            }
          ],
          "internalType": "struct ShadedApesNFT.WhitelistClaimPass",
          "name": "whitelistClaimPass",
          "type": "tuple"
        }
      ],
      "name": "whitelistClaimMint",
      "outputs": [],
      "stateMutability": "payable",
      "type": "function"
    },
    {
      "inputs": [],
      "name": "whitelistMintMaxLimit",
      "outputs": [
        {
          "internalType": "uint256",
          "name": "",
          "type": "uint256"
        }
      ],
      "stateMutability": "view",
      "type": "function"
    },
    {
      "inputs": [],
      "name": "whitelistTokenPrice",
      "outputs": [
        {
          "internalType": "uint256",
          "name": "",
          "type": "uint256"
        }
      ],
      "stateMutability": "view",
      "type": "function"
    },
    {
      "inputs": [],
      "name": "withdraw",
      "outputs": [],
      "stateMutability": "nonpayable",
      "type": "function"
    },
    {
      "stateMutability": "payable",
      "type": "receive"
    }
  ],
  "bytecode": "0x603260118190556012556658d15e17628000601355600060145561138860155560026016556017805463ffffffff1916905560c06040526005608081905264173539b7b760d91b60a09081526200005a916019919062000b15565b50601b80546001600160a01b031990811673dab1a1854214684ace522439684a145e6250523317909155601c805482169055601d8054909116905560408051808201909152600c8082526b0e8cac6d0dee6d0d25ccae8d60a31b6020909201918252620000ca91601f9162000b15565b50604080518082019091526008808252676e667470756d707360c01b6020928301908152620000fa929162000b15565b506040516200506a3803806200506a8339810160408190526200011d9162000dc0565b733cc6cdda760b79bafa08df41ecfa224f810dceb6600183838b8b620001433362000494565b81516200015890600190602085019062000b15565b5080516200016e90600290602084019062000b15565b5050508051825114620001e35760405162461bcd60e51b815260206004820152603260248201527f5061796d656e7453706c69747465723a2070617965657320616e6420736861726044820152710cae640d8cadccee8d040dad2e6dac2e8c6d60731b60648201526084015b60405180910390fd5b6000825111620002365760405162461bcd60e51b815260206004820152601a60248201527f5061796d656e7453706c69747465723a206e6f207061796565730000000000006044820152606401620001da565b60005b8251811015620002a2576200028d8382815181106200025c576200025c62000eee565b602002602001015183838151811062000279576200027962000eee565b6020026020010151620004e460201b60201c565b80620002998162000f1a565b91505062000239565b5050506daaeb6d7670e522a718067333cd4e3b15620003ea5780156200033857604051633e9f1edf60e11b81523060048201526001600160a01b03831660248201526daaeb6d7670e522a718067333cd4e90637d3e3dbe906044015b600060405180830381600087803b1580156200031957600080fd5b505af11580156200032e573d6000803e3d6000fd5b50505050620003ea565b6001600160a01b03821615620003895760405163a0af290360e01b81523060048201526001600160a01b03831660248201526daaeb6d7670e522a718067333cd4e9063a0af290390604401620002fe565b604051632210724360e11b81523060048201526daaeb6d7670e522a718067333cd4e90634420e48690602401600060405180830381600087803b158015620003d057600080fd5b505af1158015620003e5573d6000803e3d6000fd5b505050505b5050601c80546001600160a01b03199081166001600160a01b0389811691909117909255601d805490911691871691909117905562000436600f620006d2602090811b6200232517901c565b6200044d600f620006d260201b620023251760201c565b6200045a336001620006db565b83516200046f90601890602087019062000b15565b5082516200048590601a90602086019062000b15565b50505050505050505062001030565b600080546001600160a01b038381166001600160a01b0319831681178455604051919092169283917f8be0079c531659141344cd1fd0a4f28419497f9722a3daafe3b4186f6b6457e09190a35050565b6001600160a01b038216620005515760405162461bcd60e51b815260206004820152602c60248201527f5061796d656e7453706c69747465723a206163636f756e74206973207468652060448201526b7a65726f206164647265737360a01b6064820152608401620001da565b60008111620005a35760405162461bcd60e51b815260206004820152601d60248201527f5061796d656e7453706c69747465723a207368617265732061726520300000006044820152606401620001da565b6001600160a01b0382166000908152600a6020526040902054156200061f5760405162461bcd60e51b815260206004820152602b60248201527f5061796d656e7453706c69747465723a206163636f756e7420616c726561647960448201526a206861732073686172657360a81b6064820152608401620001da565b600c8054600181019091557fdf6966c971051c3d54ec59162606531493a51404a002842f56009d7e5cf4a8c70180546001600160a01b0319166001600160a01b0384169081179091556000908152600a602052604090208190556008546200068990829062000f36565b600855604080516001600160a01b0384168152602081018390527f40c340f65e17194d14ddddb073d3c9f888e3cb52b5aae0c6c7706b4fbc905fac910160405180910390a15050565b80546001019055565b620006fd8282604051806020016040528060008152506200070160201b60201c565b5050565b6200070d838362000779565b6200071c60008484846200091a565b620007745760405162461bcd60e51b815260206004820152603260248201526000805160206200504a83398151915260448201527131b2b4bb32b91034b6b83632b6b2b73a32b960711b6064820152608401620001da565b505050565b6001600160a01b038216620007d15760405162461bcd60e51b815260206004820181905260248201527f4552433732313a206d696e7420746f20746865207a65726f20616464726573736044820152606401620001da565b6000818152600360205260409020546001600160a01b031615620008385760405162461bcd60e51b815260206004820152601c60248201527f4552433732313a20746f6b656e20616c7265616479206d696e746564000000006044820152606401620001da565b6200084860008383600162000a76565b6000818152600360205260409020546001600160a01b031615620008af5760405162461bcd60e51b815260206004820152601c60248201527f4552433732313a20746f6b656e20616c7265616479206d696e746564000000006044820152606401620001da565b6001600160a01b038216600081815260046020908152604080832080546001019055848352600390915280822080546001600160a01b0319168417905551839291907fddf252ad1be2c89b69c2b068fc378daa952ba7f163c4a11628f55a4df523b3ef908290a45050565b60006200093b846001600160a01b031662000b0660201b6200232e1760201c565b1562000a6a57604051630a85bd0160e11b81526001600160a01b0385169063150b7a02906200097590339089908890889060040162000f51565b6020604051808303816000875af1925050508015620009b3575060408051601f3d908101601f19168201909252620009b09181019062000fa7565b60015b62000a4f573d808015620009e4576040519150601f19603f3d011682016040523d82523d6000602084013e620009e9565b606091505b50805160000362000a475760405162461bcd60e51b815260206004820152603260248201526000805160206200504a83398151915260448201527131b2b4bb32b91034b6b83632b6b2b73a32b960711b6064820152608401620001da565b805181602001fd5b6001600160e01b031916630a85bd0160e11b14905062000a6e565b5060015b949350505050565b600181111562000b00576001600160a01b0384161562000ac0576001600160a01b0384166000908152600460205260408120805483929062000aba90849062000fda565b90915550505b6001600160a01b0383161562000b00576001600160a01b0383166000908152600460205260408120805483929062000afa90849062000f36565b90915550505b50505050565b6001600160a01b03163b151590565b82805462000b239062000ff4565b90600052602060002090601f01602090048101928262000b47576000855562000b92565b82601f1062000b6257805160ff191683800117855562000b92565b8280016001018555821562000b92579182015b8281111562000b9257825182559160200191906001019062000b75565b5062000ba092915062000ba4565b5090565b5b8082111562000ba0576000815560010162000ba5565b634e487b7160e01b600052604160045260246000fd5b604051601f8201601f191681016001600160401b038111828210171562000bfc5762000bfc62000bbb565b604052919050565b60005b8381101562000c2157818101518382015260200162000c07565b8381111562000b005750506000910152565b600082601f83011262000c4557600080fd5b81516001600160401b0381111562000c615762000c6162000bbb565b62000c76601f8201601f191660200162000bd1565b81815284602083860101111562000c8c57600080fd5b62000a6e82602083016020870162000c04565b80516001600160a01b038116811462000cb757600080fd5b919050565b60006001600160401b0382111562000cd85762000cd862000bbb565b5060051b60200190565b600082601f83011262000cf457600080fd5b8151602062000d0d62000d078362000cbc565b62000bd1565b82815260059290921b8401810191818101908684111562000d2d57600080fd5b8286015b8481101562000d535762000d458162000c9f565b835291830191830162000d31565b509695505050505050565b600082601f83011262000d7057600080fd5b8151602062000d8362000d078362000cbc565b82815260059290921b8401810191818101908684111562000da357600080fd5b8286015b8481101562000d53578051835291830191830162000da7565b600080600080600080600080610100898b03121562000dde57600080fd5b88516001600160401b038082111562000df657600080fd5b62000e048c838d0162000c33565b995060208b015191508082111562000e1b57600080fd5b62000e298c838d0162000c33565b985062000e3960408c0162000c9f565b975062000e4960608c0162000c9f565b965060808b015191508082111562000e6057600080fd5b62000e6e8c838d0162000c33565b955060a08b015191508082111562000e8557600080fd5b62000e938c838d0162000c33565b945060c08b015191508082111562000eaa57600080fd5b62000eb88c838d0162000ce2565b935060e08b015191508082111562000ecf57600080fd5b5062000ede8b828c0162000d5e565b9150509295985092959890939650565b634e487b7160e01b600052603260045260246000fd5b634e487b7160e01b600052601160045260246000fd5b60006001820162000f2f5762000f2f62000f04565b5060010190565b6000821982111562000f4c5762000f4c62000f04565b500190565b600060018060a01b03808716835280861660208401525083604083015260806060830152825180608084015262000f908160a085016020870162000c04565b601f01601f19169190910160a00195945050505050565b60006020828403121562000fba57600080fd5b81516001600160e01b03198116811462000fd357600080fd5b9392505050565b60008282101562000fef5762000fef62000f04565b500390565b600181811c908216806200100957607f821691505b6020821081036200102a57634e487b7160e01b600052602260045260246000fd5b50919050565b61400a80620010406000396000f3fe6080604052600436106103e25760003560e01c806370a082311161020d578063c668286211610128578063e33b7de3116100bb578063ed4dcde61161008a578063f2fde38b1161006f578063f2fde38b14610bdd578063f47c84c514610bfd578063fa468ead14610c1357600080fd5b8063ed4dcde614610ba8578063ee28de5214610bbd57600080fd5b8063e33b7de314610b14578063e4a4255114610b29578063e7db8fb014610b3f578063e985e9c514610b5f57600080fd5b8063d79779b2116100f7578063d79779b214610a7e578063da3ef23f14610ab4578063e0a8085314610ad4578063e2c674a414610af457600080fd5b8063c6682862146109fd578063c87b56dd14610a12578063ce7c2ac214610a32578063d25f404714610a6857600080fd5b8063a02d1d5a116101a0578063a45ba8e71161016f578063a45ba8e714610988578063add5a4fa1461099d578063b88d4fde146109bd578063c45ac050146109dd57600080fd5b8063a02d1d5a1461091b578063a15d60c51461092e578063a22cb46514610948578063a3f8eace1461096857600080fd5b80638b83209b116101dc5780638b83209b146108925780638da5cb5b146108b257806395d89b41146108d05780639852595c146108e557600080fd5b806370a0823114610827578063715018a6146108475780637ff9b5961461085c57806385535cc51461087257600080fd5b80633bc3cea7116102fd57806348b750441161029057806358891a371161025f57806358891a37146107b45780635ffe6146146107c75780636352211e146107e75780636a61e5fc1461080757600080fd5b806348b75044146107335780634fdd43cb14610753578063518302271461077357806355f804b31461079457600080fd5b806341f43434116102cc57806341f43434146106be57806342842e0e146106e05780634287084f1461070057806342966c681461071357600080fd5b80633bc3cea71461062e5780633ccfd60b1461064e5780634047638d14610663578063406072a91461067857600080fd5b806319165587116103755780632cb15fd3116103445780632cb15fd3146105cf5780632fc09511146105e5578063353f849e146106045780633a98ef391461061957600080fd5b80631916558714610564578063200ba9a61461058457806320b2af521461059a57806323b872dd146105af57600080fd5b8063095ea7b3116103b1578063095ea7b3146104e15780630d738aeb146105015780630f1e68281461052157806318160ddd1461054157600080fd5b806301ffc9a714610430578063046dc1661461046557806306fdde0314610487578063081812fc146104a957600080fd5b3661042b577f6ef95f06320e7a25a04a175ca677b7052bdd97131872c2192525a629f51be77033604080516001600160a01b0390921682523460208301520160405180910390a1005b600080fd5b34801561043c57600080fd5b5061045061044b3660046138f7565b610c29565b60405190151581526020015b60405180910390f35b34801561047157600080fd5b50610485610480366004613929565b610d0e565b005b34801561049357600080fd5b5061049c610d45565b60405161045c919061399e565b3480156104b557600080fd5b506104c96104c43660046139b1565b610dd7565b6040516001600160a01b03909116815260200161045c565b3480156104ed57600080fd5b506104856104fc3660046139ca565b610dfe565b34801561050d57600080fd5b5061048561051c3660046139b1565b610e17565b34801561052d57600080fd5b5061048561053c3660046139b1565b610e24565b34801561054d57600080fd5b50610556610e31565b60405190815260200161045c565b34801561057057600080fd5b5061048561057f366004613929565b610e4d565b34801561059057600080fd5b5061055660165481565b3480156105a657600080fd5b5061049c610fe5565b3480156105bb57600080fd5b506104856105ca3660046139f6565b611073565b3480156105db57600080fd5b5061055660155481565b3480156105f157600080fd5b5060175461045090610100900460ff1681565b34801561061057600080fd5b5061049c61109e565b34801561062557600080fd5b50600854610556565b34801561063a57600080fd5b50610485610649366004613a45565b6110ab565b34801561065a57600080fd5b50610485611170565b34801561066f57600080fd5b506104856111b4565b34801561068457600080fd5b50610556610693366004613ad4565b6001600160a01b039182166000908152600e6020908152604080832093909416825291909152205490565b3480156106ca57600080fd5b506104c96daaeb6d7670e522a718067333cd4e81565b3480156106ec57600080fd5b506104856106fb3660046139f6565b6111d0565b61048561070e3660046139b1565b6111f5565b34801561071f57600080fd5b5061048561072e3660046139b1565b6113bb565b34801561073f57600080fd5b5061048561074e366004613ad4565b6113cc565b34801561075f57600080fd5b5061048561076e366004613b99565b611589565b34801561077f57600080fd5b50601754610450906301000000900460ff1681565b3480156107a057600080fd5b506104856107af366004613b99565b6115a8565b6104856107c23660046139ca565b6115c3565b3480156107d357600080fd5b506104856107e23660046139b1565b611802565b3480156107f357600080fd5b506104c96108023660046139b1565b611891565b34801561081357600080fd5b506104856108223660046139b1565b6118f6565b34801561083357600080fd5b50610556610842366004613929565b611903565b34801561085357600080fd5b5061048561199d565b34801561086857600080fd5b5061055660135481565b34801561087e57600080fd5b5061048561088d366004613929565b6119b1565b34801561089e57600080fd5b506104c96108ad3660046139b1565b6119e8565b3480156108be57600080fd5b506000546001600160a01b03166104c9565b3480156108dc57600080fd5b5061049c611a18565b3480156108f157600080fd5b50610556610900366004613929565b6001600160a01b03166000908152600b602052604090205490565b610485610929366004613bf8565b611a27565b34801561093a57600080fd5b506017546104509060ff1681565b34801561095457600080fd5b50610485610963366004613cab565b611de7565b34801561097457600080fd5b50610556610983366004613929565b611dfb565b34801561099457600080fd5b5061049c611e43565b3480156109a957600080fd5b506104856109b83660046139ca565b611e50565b3480156109c957600080fd5b506104856109d8366004613cd9565b611f05565b3480156109e957600080fd5b506105566109f8366004613ad4565b611f32565b348015610a0957600080fd5b5061049c612016565b348015610a1e57600080fd5b5061049c610a2d3660046139b1565b612023565b348015610a3e57600080fd5b50610556610a4d366004613929565b6001600160a01b03166000908152600a602052604090205490565b348015610a7457600080fd5b5061055660115481565b348015610a8a57600080fd5b50610556610a99366004613929565b6001600160a01b03166000908152600d602052604090205490565b348015610ac057600080fd5b50610485610acf366004613b99565b6121b6565b348015610ae057600080fd5b50610485610aef366004613d59565b6121d1565b348015610b0057600080fd5b50601b546104c9906001600160a01b031681565b348015610b2057600080fd5b50600954610556565b348015610b3557600080fd5b5061055660125481565b348015610b4b57600080fd5b50610485610b5a3660046139b1565b612212565b348015610b6b57600080fd5b50610450610b7a366004613ad4565b6001600160a01b03918216600090815260066020908152604080832093909416825291909152205460ff1690565b348015610bb457600080fd5b50610485612271565b348015610bc957600080fd5b506017546104509062010000900460ff1681565b348015610be957600080fd5b50610485610bf8366004613929565b612298565b348015610c0957600080fd5b5061055661271081565b348015610c1f57600080fd5b5061055660145481565b60007fffffffff0000000000000000000000000000000000000000000000000000000082167f80ac58cd000000000000000000000000000000000000000000000000000000001480610cbc57507fffffffff0000000000000000000000000000000000000000000000000000000082167f5b5e139f00000000000000000000000000000000000000000000000000000000145b80610d0857507f01ffc9a7000000000000000000000000000000000000000000000000000000007fffffffff000000000000000000000000000000000000000000000000000000008316145b92915050565b610d1661233d565b601d805473ffffffffffffffffffffffffffffffffffffffff19166001600160a01b0392909216919091179055565b606060018054610d5490613d76565b80601f0160208091040260200160405190810160405280929190818152602001828054610d8090613d76565b8015610dcd5780601f10610da257610100808354040283529160200191610dcd565b820191906000526020600020905b815481529060010190602001808311610db057829003601f168201915b5050505050905090565b6000610de282612397565b506000908152600560205260409020546001600160a01b031690565b81610e08816123fb565b610e1283836124e6565b505050565b610e1f61233d565b601255565b610e2c61233d565b601155565b60006001610e3e600f5490565b610e489190613dc6565b905090565b6001600160a01b0381166000908152600a6020526040902054610edd5760405162461bcd60e51b815260206004820152602660248201527f5061796d656e7453706c69747465723a206163636f756e7420686173206e6f2060448201527f736861726573000000000000000000000000000000000000000000000000000060648201526084015b60405180910390fd5b6000610ee882611dfb565b905080600003610f605760405162461bcd60e51b815260206004820152602b60248201527f5061796d656e7453706c69747465723a206163636f756e74206973206e6f742060448201527f647565207061796d656e740000000000000000000000000000000000000000006064820152608401610ed4565b8060096000828254610f729190613ddd565b90915550506001600160a01b0382166000908152600b60205260409020805482019055610f9f8282612612565b604080516001600160a01b0384168152602081018390527fdf20fd1e76bc69d672e4814fafb2c449bba3a5369d8359adf9e05e6fde87b056910160405180910390a15050565b601f8054610ff290613d76565b80601f016020809104026020016040519081016040528092919081815260200182805461101e90613d76565b801561106b5780601f106110405761010080835404028352916020019161106b565b820191906000526020600020905b81548152906001019060200180831161104e57829003601f168201915b505050505081565b826001600160a01b038116331461108d5761108d336123fb565b61109884848461272b565b50505050565b60208054610ff290613d76565b6110b361233d565b601398909855601496909655601194909455601292909255601655601b805473ffffffffffffffffffffffffffffffffffffffff19166001600160a01b03909216919091179055601780547fffffffffffffffffffffffffffffffffffffffffffffffffffffffffffff0000169115157fffffffffffffffffffffffffffffffffffffffffffffffffffffffffffff00ff1691909117610100921515929092029190911762ff000019166201000092151592909202919091179055565b61117861233d565b601c546040516001600160a01b03909116904780156108fc02916000818181858888f193505050501580156111b1573d6000803e3d6000fd5b50565b6111bc61233d565b6017805460ff19811660ff90911615179055565b826001600160a01b03811633146111ea576111ea336123fb565b6110988484846127b2565b60175460ff16151560011461124c5760405162461bcd60e51b815260206004820152601260248201527f5075626c6963204d696e7420436c6f73656400000000000000000000000000006044820152606401610ed4565b348160135461125b9190613df5565b11156112a95760405162461bcd60e51b815260206004820152601560248201527f4e6f7420656e6f7567682065746865722073656e7400000000000000000000006044820152606401610ed4565b60006112b4600f5490565b90506011548211156113085760405162461bcd60e51b815260206004820152601560248201527f4d696e7420616d6f756e7420746f6f206c6172676500000000000000000000006044820152606401610ed4565b6016546113159083613df5565b9150612710611325600183613dc6565b61132f9084613ddd565b111561137d5760405162461bcd60e51b815260206004820152601b60248201527f4e6f7420656e6f75676820746f6b656e732072656d61696e696e6700000000006044820152606401610ed4565b60005b82811015610e1257611396600f80546001019055565b6113a9336113a48385613ddd565b6127cd565b806113b381613e14565b915050611380565b6113c361233d565b6111b1816127e7565b6001600160a01b0381166000908152600a60205260409020546114575760405162461bcd60e51b815260206004820152602660248201527f5061796d656e7453706c69747465723a206163636f756e7420686173206e6f2060448201527f73686172657300000000000000000000000000000000000000000000000000006064820152608401610ed4565b60006114638383611f32565b9050806000036114db5760405162461bcd60e51b815260206004820152602b60248201527f5061796d656e7453706c69747465723a206163636f756e74206973206e6f742060448201527f647565207061796d656e740000000000000000000000000000000000000000006064820152608401610ed4565b6001600160a01b0383166000908152600d602052604081208054839290611503908490613ddd565b90915550506001600160a01b038084166000908152600e6020908152604080832093861683529290522080548201905561153e8383836127f0565b604080516001600160a01b038481168252602082018490528516917f3be5b7a71e84ed12875d241991c70855ac5817d847039e17a9d895c1ceb0f18a910160405180910390a2505050565b61159161233d565b80516115a490601a9060208401906137fa565b5050565b6115b061233d565b80516115a49060189060208401906137fa565b601b546001600160a01b031633146116425760405162461bcd60e51b8152602060048201526024808201527f546869732066756e6374696f6e20697320666f722043726f73736d696e74206f60448201527f6e6c792e000000000000000000000000000000000000000000000000000000006064820152608401610ed4565b601754610100900460ff166116995760405162461bcd60e51b815260206004820152601060248201527f43726f73736d696e7420436c6f736564000000000000000000000000000000006044820152606401610ed4565b34816013546116a89190613df5565b146116f55760405162461bcd60e51b815260206004820152601860248201527f496e636f7272656374204554482076616c75652073656e7400000000000000006044820152606401610ed4565b6000611700600f5490565b90506011548211156117545760405162461bcd60e51b815260206004820152601560248201527f4d696e7420616d6f756e7420746f6f206c6172676500000000000000000000006044820152606401610ed4565b6016546117619083613df5565b9150612710611771600183613dc6565b61177b9084613ddd565b11156117c95760405162461bcd60e51b815260206004820152601b60248201527f4e6f7420656e6f75676820746f6b656e732072656d61696e696e6700000000006044820152606401610ed4565b60005b82811015611098576117e2600f80546001019055565b6117f0846113a48385613ddd565b806117fa81613e14565b9150506117cc565b61180a61233d565b60008111801561181a5750600581105b61188c5760405162461bcd60e51b815260206004820152602560248201527f5f6d756c7469706c696572206d7573742062652067726561746572207468616e60448201527f207a65726f0000000000000000000000000000000000000000000000000000006064820152608401610ed4565b601655565b6000818152600360205260408120546001600160a01b031680610d085760405162461bcd60e51b815260206004820152601860248201527f4552433732313a20696e76616c696420746f6b656e20494400000000000000006044820152606401610ed4565b6118fe61233d565b601355565b60006001600160a01b0382166119815760405162461bcd60e51b815260206004820152602960248201527f4552433732313a2061646472657373207a65726f206973206e6f74206120766160448201527f6c6964206f776e657200000000000000000000000000000000000000000000006064820152608401610ed4565b506001600160a01b031660009081526004602052604090205490565b6119a561233d565b6119af6000612870565b565b6119b961233d565b601c805473ffffffffffffffffffffffffffffffffffffffff19166001600160a01b0392909216919091179055565b6000600c82815481106119fd576119fd613e2e565b6000918252602090912001546001600160a01b031692915050565b606060028054610d5490613d76565b6040805160ff841660208083019190915233828401528251808303840181526060909201909252805191012082908290611a6181836128cd565b611aad5760405162461bcd60e51b815260206004820152600c60248201527f496e76616c6964205061737300000000000000000000000000000000000000006044820152606401610ed4565b348660ff16601454611abf9190613df5565b1115611b0d5760405162461bcd60e51b815260206004820152601560248201527f4e6f7420656e6f7567682065746865722073656e7400000000000000000000006044820152606401610ed4565b6000611b18600f5490565b60175490915062010000900460ff161515600114611b785760405162461bcd60e51b815260206004820152601160248201527f436c61696d204d696e7420436c6f7365640000000000000000000000000000006044820152606401610ed4565b612710611b86600183613dc6565b611b939060ff8a16613ddd565b1115611be15760405162461bcd60e51b815260206004820152601b60248201527f4e6f7420656e6f75676820746f6b656e732072656d61696e696e6700000000006044820152606401610ed4565b8560ff168760ff161115611c5d5760405162461bcd60e51b815260206004820152602d60248201527f4d696e74207175616e746974792063616e27742062652067726561746572207460448201527f68616e20636c61696d61626c65000000000000000000000000000000000000006064820152608401610ed4565b60008760ff1611611cd65760405162461bcd60e51b815260206004820152602760248201527f4d696e74207175616e74697479206d757374206265206772656174657220746860448201527f616e207a65726f000000000000000000000000000000000000000000000000006064820152608401610ed4565b6012548760ff161115611d2b5760405162461bcd60e51b815260206004820152601760248201527f4d696e74207175616e7469747920746f6f206c617267650000000000000000006044820152606401610ed4565b6015548760ff16611d3b60105490565b611d459190613ddd565b1115611d935760405162461bcd60e51b815260206004820152601f60248201527f4e6f7420656e6f7567682066726565206d696e74732072656d61696e696e67006044820152606401610ed4565b60005b8760ff16811015611ddd57611daf600f80546001019055565b611dbd601080546001019055565b611dcb336113a48385613ddd565b80611dd581613e14565b915050611d96565b5050505050505050565b81611df1816123fb565b610e1283836129b5565b600080611e0760095490565b611e119047613ddd565b9050611e3c8382611e37866001600160a01b03166000908152600b602052604090205490565b6129c0565b9392505050565b601a8054610ff290613d76565b611e5861233d565b6000611e63600f5490565b905061271082611e74600184613dc6565b611e7e9190613ddd565b1115611ecc5760405162461bcd60e51b815260206004820152601b60248201527f4e6f7420656e6f75676820746f6b656e732072656d61696e696e6700000000006044820152606401610ed4565b60005b8281101561109857611ee5600f80546001019055565b611ef3846113a48385613ddd565b80611efd81613e14565b915050611ecf565b836001600160a01b0381163314611f1f57611f1f336123fb565b611f2b858585856129fe565b5050505050565b6001600160a01b0382166000908152600d602052604081205481906040517f70a082310000000000000000000000000000000000000000000000000000000081523060048201526001600160a01b038616906370a0823190602401602060405180830381865afa158015611faa573d6000803e3d6000fd5b505050506040513d601f19601f82011682018060405250810190611fce9190613e44565b611fd89190613ddd565b6001600160a01b038086166000908152600e602090815260408083209388168352929052205490915061200e90849083906129c0565b949350505050565b60198054610ff290613d76565b6000818152600360205260409020546060906001600160a01b03166120b05760405162461bcd60e51b815260206004820152602f60248201527f4552433732314d657461646174613a2055524920717565727920666f72206e6f60448201527f6e6578697374656e7420746f6b656e00000000000000000000000000000000006064820152608401610ed4565b6017546301000000900460ff16151560000361215857601a80546120d390613d76565b80601f01602080910402602001604051908101604052809291908181526020018280546120ff90613d76565b801561214c5780601f106121215761010080835404028352916020019161214c565b820191906000526020600020905b81548152906001019060200180831161212f57829003601f168201915b50505050509050919050565b6000612162612a86565b905060008151116121825760405180602001604052806000815250611e3c565b8061218c84612a95565b60196040516020016121a093929190613e5d565b6040516020818303038152906040529392505050565b6121be61233d565b80516115a49060199060208401906137fa565b6121d961233d565b601780549115156301000000027fffffffffffffffffffffffffffffffffffffffffffffffffffffffff00ffffff909216919091179055565b61221a61233d565b61271081111561226c5760405162461bcd60e51b815260206004820152601a60248201527f46726565206d696e7420616d6f756e7420746f6f206c617267650000000000006044820152606401610ed4565b601555565b61227961233d565b6017805462ff0000198116620100009182900460ff1615909102179055565b6122a061233d565b6001600160a01b03811661231c5760405162461bcd60e51b815260206004820152602660248201527f4f776e61626c653a206e6577206f776e657220697320746865207a65726f206160448201527f64647265737300000000000000000000000000000000000000000000000000006064820152608401610ed4565b6111b181612870565b80546001019055565b6001600160a01b03163b151590565b6000546001600160a01b031633146119af5760405162461bcd60e51b815260206004820181905260248201527f4f776e61626c653a2063616c6c6572206973206e6f7420746865206f776e65726044820152606401610ed4565b6000818152600360205260409020546001600160a01b03166111b15760405162461bcd60e51b815260206004820152601860248201527f4552433732313a20696e76616c696420746f6b656e20494400000000000000006044820152606401610ed4565b6daaeb6d7670e522a718067333cd4e3b156111b1576040517fc61711340000000000000000000000000000000000000000000000000000000081523060048201526001600160a01b03821660248201526daaeb6d7670e522a718067333cd4e9063c617113490604401602060405180830381865afa158015612481573d6000803e3d6000fd5b505050506040513d601f19601f820116820180604052508101906124a59190613f20565b6111b1576040517fede71dcc0000000000000000000000000000000000000000000000000000000081526001600160a01b0382166004820152602401610ed4565b60006124f182611891565b9050806001600160a01b0316836001600160a01b03160361257a5760405162461bcd60e51b815260206004820152602160248201527f4552433732313a20617070726f76616c20746f2063757272656e74206f776e6560448201527f72000000000000000000000000000000000000000000000000000000000000006064820152608401610ed4565b336001600160a01b038216148061259657506125968133610b7a565b6126085760405162461bcd60e51b815260206004820152603d60248201527f4552433732313a20617070726f76652063616c6c6572206973206e6f7420746f60448201527f6b656e206f776e6572206f7220617070726f76656420666f7220616c6c0000006064820152608401610ed4565b610e128383612b35565b804710156126625760405162461bcd60e51b815260206004820152601d60248201527f416464726573733a20696e73756666696369656e742062616c616e63650000006044820152606401610ed4565b6000826001600160a01b03168260405160006040518083038185875af1925050503d80600081146126af576040519150601f19603f3d011682016040523d82523d6000602084013e6126b4565b606091505b5050905080610e125760405162461bcd60e51b815260206004820152603a60248201527f416464726573733a20756e61626c6520746f2073656e642076616c75652c207260448201527f6563697069656e74206d617920686176652072657665727465640000000000006064820152608401610ed4565b6127353382612bb0565b6127a75760405162461bcd60e51b815260206004820152602d60248201527f4552433732313a2063616c6c6572206973206e6f7420746f6b656e206f776e6560448201527f72206f7220617070726f766564000000000000000000000000000000000000006064820152608401610ed4565b610e12838383612c2e565b610e1283838360405180602001604052806000815250611f05565b6115a4828260405180602001604052806000815250612e71565b6111b181612efa565b604080516001600160a01b038416602482015260448082018490528251808303909101815260649091019091526020810180517bffffffffffffffffffffffffffffffffffffffffffffffffffffffff167fa9059cbb00000000000000000000000000000000000000000000000000000000179052610e12908490612f3a565b600080546001600160a01b0383811673ffffffffffffffffffffffffffffffffffffffff19831681178455604051919092169283917f8be0079c531659141344cd1fd0a4f28419497f9722a3daafe3b4186f6b6457e09190a35050565b60008060018484604001518560000151866020015160405160008152602001604052604051612918949392919093845260ff9290921660208401526040830152606082015260800190565b6020604051602081039080840390855afa15801561293a573d6000803e3d6000fd5b5050604051601f1901519150506001600160a01b03811661299d5760405162461bcd60e51b815260206004820152601860248201527f45434453413a20696e76616c6964207369676e617475726500000000000000006044820152606401610ed4565b601d546001600160a01b039081169116149392505050565b6115a433838361301f565b6008546001600160a01b0384166000908152600a6020526040812054909183916129ea9086613df5565b6129f49190613f3d565b61200e9190613dc6565b612a083383612bb0565b612a7a5760405162461bcd60e51b815260206004820152602d60248201527f4552433732313a2063616c6c6572206973206e6f7420746f6b656e206f776e6560448201527f72206f7220617070726f766564000000000000000000000000000000000000006064820152608401610ed4565b611098848484846130ed565b606060188054610d5490613d76565b60606000612aa283613176565b600101905060008167ffffffffffffffff811115612ac257612ac2613b0d565b6040519080825280601f01601f191660200182016040528015612aec576020820181803683370190505b5090508181016020015b600019017f3031323334353637383961626364656600000000000000000000000000000000600a86061a8153600a8504945084612af657509392505050565b6000818152600560205260409020805473ffffffffffffffffffffffffffffffffffffffff19166001600160a01b0384169081179091558190612b7782611891565b6001600160a01b03167f8c5be1e5ebec7d5bd14f71427d1e84f3dd0314c0f7b2291e5b200ac8c7c3b92560405160405180910390a45050565b600080612bbc83611891565b9050806001600160a01b0316846001600160a01b03161480612c0357506001600160a01b0380821660009081526006602090815260408083209388168352929052205460ff165b8061200e5750836001600160a01b0316612c1c84610dd7565b6001600160a01b031614949350505050565b826001600160a01b0316612c4182611891565b6001600160a01b031614612cbd5760405162461bcd60e51b815260206004820152602560248201527f4552433732313a207472616e736665722066726f6d20696e636f72726563742060448201527f6f776e65720000000000000000000000000000000000000000000000000000006064820152608401610ed4565b6001600160a01b038216612d385760405162461bcd60e51b8152602060048201526024808201527f4552433732313a207472616e7366657220746f20746865207a65726f2061646460448201527f72657373000000000000000000000000000000000000000000000000000000006064820152608401610ed4565b612d458383836001613258565b826001600160a01b0316612d5882611891565b6001600160a01b031614612dd45760405162461bcd60e51b815260206004820152602560248201527f4552433732313a207472616e736665722066726f6d20696e636f72726563742060448201527f6f776e65720000000000000000000000000000000000000000000000000000006064820152608401610ed4565b6000818152600560209081526040808320805473ffffffffffffffffffffffffffffffffffffffff199081169091556001600160a01b0387811680865260048552838620805460001901905590871680865283862080546001019055868652600390945282852080549092168417909155905184937fddf252ad1be2c89b69c2b068fc378daa952ba7f163c4a11628f55a4df523b3ef91a4505050565b612e7b83836132e0565b612e886000848484613486565b610e125760405162461bcd60e51b815260206004820152603260248201527f4552433732313a207472616e7366657220746f206e6f6e20455243373231526560448201527f63656976657220696d706c656d656e74657200000000000000000000000000006064820152608401610ed4565b612f0381613627565b60008181526007602052604090208054612f1c90613d76565b1590506111b15760008181526007602052604081206111b19161387e565b6000612f8f826040518060400160405280602081526020017f5361666545524332303a206c6f772d6c6576656c2063616c6c206661696c6564815250856001600160a01b03166136d79092919063ffffffff16565b805190915015610e125780806020019051810190612fad9190613f20565b610e125760405162461bcd60e51b815260206004820152602a60248201527f5361666545524332303a204552433230206f7065726174696f6e20646964206e60448201527f6f742073756363656564000000000000000000000000000000000000000000006064820152608401610ed4565b816001600160a01b0316836001600160a01b0316036130805760405162461bcd60e51b815260206004820152601960248201527f4552433732313a20617070726f766520746f2063616c6c6572000000000000006044820152606401610ed4565b6001600160a01b03838116600081815260066020908152604080832094871680845294825291829020805460ff191686151590811790915591519182527f17307eab39ab6107e8899845ad3d59bd9653f200f220920489ca2b5937696c31910160405180910390a3505050565b6130f8848484612c2e565b61310484848484613486565b6110985760405162461bcd60e51b815260206004820152603260248201527f4552433732313a207472616e7366657220746f206e6f6e20455243373231526560448201527f63656976657220696d706c656d656e74657200000000000000000000000000006064820152608401610ed4565b6000807a184f03e93ff9f4daa797ed6e38ed64bf6a1f01000000000000000083106131bf577a184f03e93ff9f4daa797ed6e38ed64bf6a1f010000000000000000830492506040015b6d04ee2d6d415b85acef810000000083106131eb576d04ee2d6d415b85acef8100000000830492506020015b662386f26fc10000831061320957662386f26fc10000830492506010015b6305f5e1008310613221576305f5e100830492506008015b612710831061323557612710830492506004015b60648310613247576064830492506002015b600a8310610d085760010192915050565b6001811115611098576001600160a01b0384161561329e576001600160a01b03841660009081526004602052604081208054839290613298908490613dc6565b90915550505b6001600160a01b03831615611098576001600160a01b038316600090815260046020526040812080548392906132d5908490613ddd565b909155505050505050565b6001600160a01b0382166133365760405162461bcd60e51b815260206004820181905260248201527f4552433732313a206d696e7420746f20746865207a65726f20616464726573736044820152606401610ed4565b6000818152600360205260409020546001600160a01b03161561339b5760405162461bcd60e51b815260206004820152601c60248201527f4552433732313a20746f6b656e20616c7265616479206d696e746564000000006044820152606401610ed4565b6133a9600083836001613258565b6000818152600360205260409020546001600160a01b03161561340e5760405162461bcd60e51b815260206004820152601c60248201527f4552433732313a20746f6b656e20616c7265616479206d696e746564000000006044820152606401610ed4565b6001600160a01b0382166000818152600460209081526040808320805460010190558483526003909152808220805473ffffffffffffffffffffffffffffffffffffffff19168417905551839291907fddf252ad1be2c89b69c2b068fc378daa952ba7f163c4a11628f55a4df523b3ef908290a45050565b60006001600160a01b0384163b1561361c576040517f150b7a020000000000000000000000000000000000000000000000000000000081526001600160a01b0385169063150b7a02906134e3903390899088908890600401613f5f565b6020604051808303816000875af192505050801561351e575060408051601f3d908101601f1916820190925261351b91810190613f9b565b60015b6135d1573d80801561354c576040519150601f19603f3d011682016040523d82523d6000602084013e613551565b606091505b5080516000036135c95760405162461bcd60e51b815260206004820152603260248201527f4552433732313a207472616e7366657220746f206e6f6e20455243373231526560448201527f63656976657220696d706c656d656e74657200000000000000000000000000006064820152608401610ed4565b805181602001fd5b7fffffffff00000000000000000000000000000000000000000000000000000000167f150b7a020000000000000000000000000000000000000000000000000000000014905061200e565b506001949350505050565b600061363282611891565b9050613642816000846001613258565b61364b82611891565b6000838152600560209081526040808320805473ffffffffffffffffffffffffffffffffffffffff199081169091556001600160a01b0385168085526004845282852080546000190190558785526003909352818420805490911690555192935084927fddf252ad1be2c89b69c2b068fc378daa952ba7f163c4a11628f55a4df523b3ef908390a45050565b606061200e848460008585600080866001600160a01b031685876040516136fe9190613fb8565b60006040518083038185875af1925050503d806000811461373b576040519150601f19603f3d011682016040523d82523d6000602084013e613740565b606091505b50915091506137518783838761375c565b979650505050505050565b606083156137cb5782516000036137c4576001600160a01b0385163b6137c45760405162461bcd60e51b815260206004820152601d60248201527f416464726573733a2063616c6c20746f206e6f6e2d636f6e74726163740000006044820152606401610ed4565b508161200e565b61200e83838151156137e05781518083602001fd5b8060405162461bcd60e51b8152600401610ed4919061399e565b82805461380690613d76565b90600052602060002090601f016020900481019282613828576000855561386e565b82601f1061384157805160ff191683800117855561386e565b8280016001018555821561386e579182015b8281111561386e578251825591602001919060010190613853565b5061387a9291506138b4565b5090565b50805461388a90613d76565b6000825580601f1061389a575050565b601f0160209004906000526020600020908101906111b191905b5b8082111561387a57600081556001016138b5565b7fffffffff00000000000000000000000000000000000000000000000000000000811681146111b157600080fd5b60006020828403121561390957600080fd5b8135611e3c816138c9565b6001600160a01b03811681146111b157600080fd5b60006020828403121561393b57600080fd5b8135611e3c81613914565b60005b83811015613961578181015183820152602001613949565b838111156110985750506000910152565b6000815180845261398a816020860160208601613946565b601f01601f19169290920160200192915050565b602081526000611e3c6020830184613972565b6000602082840312156139c357600080fd5b5035919050565b600080604083850312156139dd57600080fd5b82356139e881613914565b946020939093013593505050565b600080600060608486031215613a0b57600080fd5b8335613a1681613914565b92506020840135613a2681613914565b929592945050506040919091013590565b80151581146111b157600080fd5b60008060008060008060008060006101208a8c031215613a6457600080fd5b8935985060208a0135975060408a0135965060608a0135955060808a0135945060a08a0135613a9281613914565b935060c08a0135613aa281613a37565b925060e08a0135613ab281613a37565b91506101008a0135613ac381613a37565b809150509295985092959850929598565b60008060408385031215613ae757600080fd5b8235613af281613914565b91506020830135613b0281613914565b809150509250929050565b634e487b7160e01b600052604160045260246000fd5b600067ffffffffffffffff80841115613b3e57613b3e613b0d565b604051601f8501601f19908116603f01168101908282118183101715613b6657613b66613b0d565b81604052809350858152868686011115613b7f57600080fd5b858560208301376000602087830101525050509392505050565b600060208284031215613bab57600080fd5b813567ffffffffffffffff811115613bc257600080fd5b8201601f81018413613bd357600080fd5b61200e84823560208401613b23565b803560ff81168114613bf357600080fd5b919050565b600080600083850360a0811215613c0e57600080fd5b613c1785613be2565b9350613c2560208601613be2565b925060607fffffffffffffffffffffffffffffffffffffffffffffffffffffffffffffffc082011215613c5757600080fd5b506040516060810181811067ffffffffffffffff82111715613c7b57613c7b613b0d565b6040908152850135815260608501356020820152613c9b60808601613be2565b6040820152809150509250925092565b60008060408385031215613cbe57600080fd5b8235613cc981613914565b91506020830135613b0281613a37565b60008060008060808587031215613cef57600080fd5b8435613cfa81613914565b93506020850135613d0a81613914565b925060408501359150606085013567ffffffffffffffff811115613d2d57600080fd5b8501601f81018713613d3e57600080fd5b613d4d87823560208401613b23565b91505092959194509250565b600060208284031215613d6b57600080fd5b8135611e3c81613a37565b600181811c90821680613d8a57607f821691505b602082108103613daa57634e487b7160e01b600052602260045260246000fd5b50919050565b634e487b7160e01b600052601160045260246000fd5b600082821015613dd857613dd8613db0565b500390565b60008219821115613df057613df0613db0565b500190565b6000816000190483118215151615613e0f57613e0f613db0565b500290565b60006000198203613e2757613e27613db0565b5060010190565b634e487b7160e01b600052603260045260246000fd5b600060208284031215613e5657600080fd5b5051919050565b600084516020613e708285838a01613946565b855191840191613e838184848a01613946565b8554920191600090600181811c9080831680613ea057607f831692505b8583108103613ebd57634e487b7160e01b85526022600452602485fd5b808015613ed15760018114613ee257613f0f565b60ff19851688528388019550613f0f565b60008b81526020902060005b85811015613f075781548a820152908401908801613eee565b505083880195505b50939b9a5050505050505050505050565b600060208284031215613f3257600080fd5b8151611e3c81613a37565b600082613f5a57634e487b7160e01b600052601260045260246000fd5b500490565b60006001600160a01b03808716835280861660208401525083604083015260806060830152613f916080830184613972565b9695505050505050565b600060208284031215613fad57600080fd5b8151611e3c816138c9565b60008251613fca818460208701613946565b919091019291505056fea26469706673582212206ca015e1b0f90ff86a8d54b92767c098313af0ffd0e6ddb5fff54457f55420bd64736f6c634300080d00334552433732313a207472616e7366657220746f206e6f6e204552433732315265",
  "linkReferences": {},
  "deployedLinkReferences": {}
}